:10100000409D0020996801006B2203008568010063
:101010008568010085680100856801000000000006
:10102000000000000000000000000000016A010054
:101030008568010000000000A169010085680100C9
:10104000F96B01004D510300F96B0100F96B0100D0
:10105000F96B0100F96B0100F96B0100F96B0100FC
:1010600063510300F96B0100F96B01003751030074
:10107000F96B0100F96B0100F96B0100F96B0100DC
:10108000F96B0100F96B0100F96B0100F96B0100CC
:10109000F96B0100F96B0100F96B0100F96B0100BC
:1010A000F96B0100F96B0100F96B0100F96B0100AC
:1010B000F96B0100F96B0100F96B0100F96B01009C
:1010C000F96B0100F96B0100F96B0100F96B01008C
:1010D000F96B0100F96B0100F96B0100F96B01007C
:1010E000F96B0100F96B0100F96B0100F96B01006C
:1010F000F96B0100F96B0100F96B0100F96B01005C
:1011000080EA101404F0F01480EA0410604081EAD0
:10111000111404F0F01481EA0411614082EA1214FF
:1011200004F0F01482EA0412624083EA131404F01B
:10113000F01483EA0413634080EA102404F47F442B
:1011400080EA0420604081EA112404F47F4481EAAB
:101150000421614082EA122404F47F4482EA0422DA
:10116000624083EA132404F47F4483EA0423634047
:1011700081EA500404F0553480EA4400614083EA77
:10118000520404F0553482EA4402634082EA900437
:1011900004F0333480EA8400624083EA910404F06E
:1011A000333481EA84016340704700BF82EA9004CF
:1011B00004F0333480EA8400624083EA910404F04E
:1011C000333481EA8401634081EA500404F05534E9
:1011D00080EA4400614083EA520404F0553482EA14
:1011E0004402634080EA102404F47F4480EA04202F
:1011F000604081EA112404F47F4481EA04216140C3
:1012000082EA122404F47F4482EA0422624083EAE0
:10121000132404F47F4483EA0423634080EA101417
:1012200004F0F01480EA0410604081EA111404F024
:10123000F01481EA0411614082EA121404F0F014FF
:1012400082EA0412624083EA131404F0F01483EA81
:1012500004136340704700BF2DE9F14F94464FEAF5
:10126000930B8A68CB6808684968FFF749FF0BF160
:10127000060E33E083EA134480EA134582EA1347FB
:1012800046BA96EA3444604000F00F1684EA063409
:1012900020F00F1684EA161054BA94EA0106724040
:1012A00002F00F1486EA043622F00F1486EA1412B4
:1012B0004CBA6540694001F00F1485EA043521F00D
:1012C0000F1485EA14115CBA67407B4003F00F14D9
:1012D00087EA043723F00F1487EA1413BCE8F00000
:1012E0006040694072407B4000F0E03400F010350F
:1012F00000F00F3040EA540040EAC50080EA900454
:1013000004F0332480EA8400604001F0E03401F00E
:10131000103501F00F3141EA540141EAC50181EA7B
:10132000910404F0332481EA8401614002F0E03446
:1013300002F0103502F00F3242EA540242EAC502CE
:1013400082EA920404F0332482EA8402624003F0C9
:10135000E03403F0103503F00F3343EA540343EA5B
:10136000C50383EA930404F0332483EA84036340CF
:1013700081EA324787EA134581EA354690EA060456
:1013800084EA034B82EA1B4280EA044484EA05446F
:1013900083EA144A85EA14448BEA044B84EA37440E
:1013A00081EA0B4181EA164104EA0A00454082EADB
:1013B00004082BEA080041408AEA0B0602EA06000C
:1013C00084EA34438AEA3A4603EA0607784045400D
:1013D000414088EA38478BEA3B4007EA000985EA42
:1013E000090583EA0709464006EA0906714085EACD
:1013F000010005EA3546464006EA314181EA3041BE
:1014000081EA364606EA304686EA3546344008EA3E
:10141000010886EA01052A4086EA364003405A4020
:1014200081EA31431F407C4080EA030709EA07094B
:1014300088EA0908544088EA020806EA0A0601EA2E
:101440000B018AEA0B0215408AEA3A4210404540F5
:101450008BEA3B4003405E404240174079404D409C
:101460004E40E443F64386EA18435D4085EA054072
:1014700083EA134386EA034183EA384284EA11434C
:1014800083EA04435FEA3343BEF1010E3FF6F2AE56
:101490001ED4BCE8F0006040694072407B4020BC34
:1014A000FFF784FE28606960AA60EB60BDE8F08FFA
:1014B0002DE9E0414FF2F00280EA1031114080EA5C
:1014C0000130484041088208C3084FF0000E4FE742
:1014D00000F0113001F0113102F0113203F011333C
:1014E00040EA410040EA820040EAC3004FF2F002C5
:1014F00080EA1031114080EA01304840BDE8E081C7
:101500002DE9F04F02F11C050646074600EB850861
:1015100051F8040B043A46F8040BF9D14FF0010CD2
:10152000FFF7C6FF5FEA302080EA0C001ECF414083
:101530004A4053405C401EC62000464517D04FEA43
:101540004C0C1CF4807F18BFACF1E50C2C2DE7D0BF
:101550003C2D06D1FFF7ACFF06CF41404A4006C6FE
:10156000100006CF41404A4006C61000D8E736E9D1
:101570000F00FFF7C5FD043D86E80F00F7D1BDE879
:10158000F08F00BF2DE9F14F03F11C0402EB840C36
:101590004FEA930B8A68CB6808684968FFF7B0FD8B
:1015A0003CE9F0006040694072407B400BF1060E60
:1015B0004EE083EA134480EA134582EA134746BAB1
:1015C00096EA3444604000F00F1684EA063420F0B6
:1015D0000F1684EA161054BA94EA0106724002F01B
:1015E0000F1486EA043622F00F1486EA14124CBA5D
:1015F0006540694001F00F1485EA043521F00F14AD
:1016000085EA14115CBA67407B4003F00F1487EA47
:10161000043723F00F1487EA141344BA44404DBA38
:101620004D4056BA56405FBA5F4087EA174886EA8F
:10163000174B84EA17464FEA38488BEA1B4485EA81
:101640001B4788EA1B4580EA3440694072407B4072
:1016500000F0703400F0803500F00F3040EA4400B4
:1016600040EAD50080EA900404F0332480EA840044
:10167000604001F0703401F0803501F00F3141EA33
:10168000440141EAD50181EA910404F0332481EA5E
:101690008401614002F0703402F0803502F00F32B4
:1016A00042EA440242EAD50282EA920404F0332478
:1016B00082EA8402624003F0703403F0803503F064
:1016C0000F3343EA440343EAD50383EA930404F067
:1016D000332483EA84036340C943DB4381EA000483
:1016E00083EA044686EA020183EA014382EA33453B
:1016F00083EA14435C4084EA00077FEA040A8AEA2A
:10170000024A8AEA010B87EA11488AEA374A80EAE4
:10171000060181EA1A418AEA030A04EA0A004540FE
:1017200088EA040707EA0B0041408AEA0B0608EA48
:10173000060084EA34428AEA3A4602EA060358403E
:101740004540414087EA37438BEA3B4003EA0009C2
:1017500085EA090582EA0309464006EA090671405E
:1017600085EA010005EA3546464006EA314181EA4C
:10177000304181EA364606EA304686EA354634404C
:101780000F4086EA010508EA050886EA364002406D
:1017900088EA020881EA314213405C4080EA020391
:1017A00009EA030987EA0907674088EA040806EAA4
:1017B0000A0601EA0B018AEA0B0425408AEA3A4448
:1017C000204045408BEA3B4B02EA0B02564084EA3C
:1017D0000B04234059406E40694087EA364080EA56
:1017E000384080EA060380EA104481EA134585EA1E
:1017F000344585EA17427D4082EA354180EA05405A
:101800003CE9F0006040694072407B40BEF1010E4F
:101810003FF6CFAE20BCFFF7C9FC28606960AA6024
:10182000EB60BDE8F08F00BFFFF76ABE2DE9F0075F
:1018300091E8F807B2E802105B1854EB0C04B2E828
:1018400002104D4156EB0C06B2E802104F4158EB26
:101850000C08B2E8021059EB01095AEB0C0A80E8B7
:10186000F80780410130BDE8F00770472DE9F00727
:1018700091E8F807B2E802105B1A74EB0C04B2E8C6
:1018800002108D4176EB0C06B2E802108F4178EB26
:101890000C08B2E8021079EB01097AEB0C0A80E837
:1018A000F80780414042BDE8F00770472DE9F00796
:1018B000524290E87800B1E880071740DB1918EA37
:1018C000020854EB080419EA020955EB09051AEA63
:1018D000020A56EB0A0678C090E87800B1E8800763
:1018E00017407B4118EA020854EB080419EA020980
:1018F00055EB09051AEA020A56EB0A0678C0804140
:101900000130BDE8F00770472DE9F007524290E83A
:101910007800B1E880071740DB1B18EA020874EB77
:10192000080419EA020975EB09051AEA020A76EBBE
:101930000A0678C090E87800B1E880071740BB41FC
:1019400018EA020874EB080419EA020975EB0905A4
:101950001AEA020A76EB0A0678C080414042BDE8E6
:10196000F00770472DE9F00152424FF0040890E86B
:10197000300091E8C000A31B1340E41AF618EB1BDB
:101980001340ED1AFF1830C0C0C1B8F10108EED104
:10199000BDE8F001704700BF00B592E8DC072DE913
:1019A000DC07B1E8805702B4A7FB02510A95A8FBF7
:1019B000020BE7FB6310E9FB62B00B91A8FB03513C
:1019C000EAFB6201E7FB64B5E7FB6605E8FB661529
:1019D000CDF830B0A9FB03B6EAFB6316ECFB635607
:1019E000E8FB640BE9FB641BEAFB645BECFB646BE8
:1019F0000D90ACFB0230059CEEFB6250E9FB64608D
:101A0000EAFB64B0E7FB6431E8FB6451069CE8FB49
:101A10006461E9FB64B1EAFB64010E93A7FB043245
:101A2000079CE7FB6462E8FB64B2E9FB6402EAFB43
:101A30006412049CE9FB6453EAFB6463089CE7FBC3
:101A400064B3E8FB6403E9FB6413EAFB64230F95CA
:101A50005DF8049B99E80006DDF80080A9FB0854B6
:101A6000EAFB68B4DDF81080ECFB6804EEFB681458
:101A7000E9FB6824EAFB6834DDF80480EEFB686566
:101A8000E9FB68B5EAFB6805DDF81480ECFB681536
:101A9000EEFB6825E9FB6835EAFB68450F96DDF843
:101AA0000880AEFB0876E9FB6806EAFB6816DDF8FD
:101AB0001880ECFB6826EEFB6836E9FB6846EAFB1B
:101AC0006856DDF80C80ECFB68B7EEFB6807E9FBB5
:101AD0006817EAFB6827DDF81C80ECFB6837EEFB33
:101AE0006847E9FB6857EAFB686708B000BD00BFBC
:101AF0002DE9F14F87B0FFF74FFFDDF81C8008F1AB
:101B0000200888E8FF00FFBC87E87F08BDE8F08F69
:101B100000B591E89857A3FB03520195A3FB04017C
:101B2000E3FB6420E3FB67100292A3FB0752E3FB95
:101B30006802E4FB6415E3FB6805E3FB6925039198
:101B4000A4FB07B6E3FB6926E3FB6A56E4FB670BDD
:101B5000E4FB682BE3FB6A5BE3FB6C6B0490A4FB88
:101B60000810E4FB6950E3FB6C60E3FB6EB0E7FB3D
:101B70006721E4FB6951E4FB6A61E3FB6EB1E4FBBE
:101B80006E010592A7FB0832E4FB6A62E4FB6CB2CB
:101B9000E4FB6E02E7FB6E12E7FB6853E7FB696349
:101BA000E4FB6CB3E7FB6C03E7FB6E13E8FB6E230F
:101BB0000695A7FB0954E7FB6AB4E7FB6C04E8FB56
:101BC0006C14E8FB6E24E9FB6E34E8FB6865E7FB08
:101BD0006AB5E8FB6A05E8FB6C15E9FB6C25E9FBD7
:101BE0006E35EAFB6E450796A8FB0976E8FB6A06A8
:101BF000E9FB6A16E9FB6C26EAFB6C36EAFB6E46EB
:101C0000ECFB6E56E8FB69B7E9FB6907E9FB6A176D
:101C1000EAFB6A27EAFB6C37ECFB6C47ECFB6E5780
:101C2000EEFB6E6700BD00BF2DE9F14F87B0FFF7F7
:101C30006FFFDDF81C8008F1200888E8FF00FFBC7A
:101C400087E87F08BDE8F08F30B44FF0000310F84C
:101C5000014B11F8015B013A84EA050443EA0403ED
:101C6000F5D1A3F101034FEAD37030BC704700BF38
:101C70004FF0000310F8012B013943EA0203F9D1B8
:101C8000A3F101034FEAD370704700BF30B411F8DD
:101C9000014B12F8015B6C4000F8014B013BF6D19F
:101CA00030BC70472DE9F00791E8F807B2E8021060
:101CB0005B1854EB0C04B2E802104D4156EB0C06D5
:101CC000B2E802104F4158EB0C08B2E8021059EB91
:101CD00001095AEB0C0A8941B3F1FF3374F1FF3467
:101CE00075F1FF3576F1000677F1000778F100080D
:101CF00079F101097AF1FF3A51F100015B184C4189
:101D00004D4156F1000657F1000758F1000859EB14
:101D1000D1795AEB010A80E8F807BDE8F00770476F
:101D20002DE9F00791E8F807B2E802105B1A74EBAE
:101D30000C04B2E802108D4176EB0C06B2E80210FA
:101D40008F4178EB0C08B2E8021079EB01097AEBCD
:101D50000C0A89415B184C414D4156F1000657F180
:101D6000000758F1000859EBD1795AEB010A80E8D5
:101D7000F807BDE8F007704718EB040859EB0509B0
:101D80005AEB060A5BEB070B5FF0000C4CF1000C02
:101D900018EB050859EB06095AEB070A5BEB070B32
:101DA00050EB0C005FF0000C51EB0C0152EB0C02FD
:101DB00063414CF1000CB8EB070879F100097AF1A6
:101DC000000A7BEB040BA841B141A241B3416CF185
:101DD000000CBBEB050BB041B941AA41BB416CF112
:101DE000000C4CF001068CF0020718EB060859EBCA
:101DF0006C095AEB6C0A7BEB6C0B70EB6C0471EBAF
:101E00006C0572EB670653EB6C076CEB6C0C18EB14
:101E10000C0059EB0C015AEB0C025BF1000354F17E
:101E2000000455F1000556EBDC7657EB0C077047C4
:101E30002DE9F14F87B0FFF7AFFDDDF81080DDF839
:101E40001490DDF818A0FFF797FFBDE8000FFFF72B
:101E500093FF03B05DF8048B88E8FF00BDE8F08FC6
:101E60002DE9F14F87B0FFF753FEDDF81080DDF864
:101E70001490DDF818A0FFF77FFFBDE8000FFFF713
:101E80007BFF03B05DF8048B88E8FF00BDE8F08FAE
:101E9000054B1B780022013382600260034A4260D6
:101EA000C371FF2303727047400C0020200108001B
:101EB000064B074A9B7802604FF414728280C3710C
:101EC0000822002382710372704700BF400C00207B
:101ED000C7F10000F8B5C71D002827F00707054621
:101EE00014BF3846002000F09BFA041E02DA6FF09F
:101EF0000B00F8BD2E4EF188B088737A327A033128
:101F0000033089B280B20AF07EFD0028EFDBB178A1
:101F1000F37827440337002D194427F0030700FB0B
:101F200001F114BF3846002000F000FC07440DB951
:101F3000002FDCDB01203C4600F068FA90B1F17A1A
:101F400081B10737002D27F0070414BF2046002079
:101F50002523282204F080FC0028C8DB04440DB9A6
:101F6000002CC4DBB37AABB1012000F04FFA88B18A
:101F7000F37A7BB10734002D24F0070414BF204608
:101F80000020B17A03F090FA0028B0DB04440DB9C8
:101F9000002CACDBF3683BB115B1F4600020A8E77E
:101FA0002834A4D42046A4E7002DF7D1FAE700BFD7
:101FB000400C00201FB572B6194B1D69EDB9BFF377
:101FC0004F8F1849184BCA6802F4E0621343CB6084
:101FD000BFF34F8F00BFFDE72346B2FBF6F25C1C58
:101FE000002AF9D104AEDCB256FA83F303F80C2CC4
:101FF0000A2234B901A8A847E1E7024600230A26CD
:10200000EDE7631E04AEDCB256FA83F3B0FBF2F6E2
:1020100002FB1600303003F80C0C3046E9E700BF35
:10202000400C002000ED00E00400FA0507B50A4B63
:102030001A89ADF800206846DA889B88ADF804203C
:10204000ADF8023001F0D4FE18B1FC219C20FFF75E
:10205000B1FF03B05DF804FB400C002010B504464E
:1020600020B309F0BDFD10B94FF0FF3010BD07F0EF
:10207000A7FBB0F5FA7FF7D80E4B00221A751A703D
:10208000DA6001225A801B229A80DA8040F2032211
:102090001A814FF442721C615A81EFF3108472B6B8
:1020A00000F0B6FB04B962B60020DFE76FF0150060
:1020B000DCE700BF400C002038B51446002847D1AB
:1020C000254D2B7D032B40D071B112B96FF0150057
:1020D00038BD013906293BD8DFE801F0043A133A4C
:1020E000293A32001378AB700020FFF7F3FE002886
:1020F000B7BF012302232B756FF00B00A8BF2B7510
:10210000E6E71379002BE1D05379002BDED012885B
:10211000FB2ADBD863881B3B9BB2E02BD6D81A2A5C
:10212000D4D923686B600D4BA2889A80DCE701202C
:1021300000F06CF9237808B1012BC7D9EB72D3E713
:102140001388FF2BC2D8AB72CEE74FF0FF30BFE74A
:102150006FF02C00BCE700BF400C0020440C0020B6
:10216000F8B50D46064620B319B311F0070420D187
:10217000114F3B7D012B02D16FF00B00F8BD032BFB
:1021800002D14FF0FF30F9E700F05AF80028F8D0FC
:102190002846FFF79FFE0028EEDB0DF068F830467A
:1021A000F96801F09FFEFFF741FF03233B752046CE
:1021B000E4E76FF01500E1E7400C002010B5064C95
:1021C000237D032B03D101F0A5FE02F017FC0AF0DA
:1021D0006FFC0020207510BD400C002050B1074B53
:1021E00003F1140253F8041B40F8041B9342F9D185
:1021F000002070476FF01500704700BF9AEC030095
:1022000008B501F051FE0549012000F0F7F8BDE8DE
:1022100008400349002000F0F1B800BF911E000003
:10222000B11E0000024B02681A600020704700BF18
:10223000580C0020014B1B68184700BF580C0020A9
:10224000024B1868003818BF01207047580C002056
:10225000074B4FF0FF3141F6FF72C3E90012054909
:102260000022C1E900221F21C3E90212704700BF0A
:10227000000000205C0C00203F280CD801380B4BDC
:10228000C0F3421200F01F0053F8223023FA00F08E
:1022900000F001007047FF2806D04038C0F342121A
:1022A000034B00F01F00EFE7012070470000002003
:1022B0005C0C00200146074B006849681A4603C2BF
:1022C00040F48C221A6041F0107242F4FF625A60AE
:1022D00000207047000000200246034B0068516850
:1022E00003C30020704700BF5C0C00200246034B74
:1022F0000068516803C30020704700BF0800002039
:10230000382800F1FF33DBB21FBF064A590902EB40
:10231000810203F01F031DBF9068D84000F0010048
:102320000020704700000020F0B50C88C37C0288B4
:10233000A5B2C4F30E0404F118060233865B1A44F6
:10234000334497B213FA82F3013B4288B3FBF7F3AD
:1023500013FB07439BB29A42044A93BF22EA050348
:102360002A4013439BB20B80F0BD00BF0080FFFFEB
:102370004A1E062A08B50346084604D84FF4D17110
:102380001520FFF717FE094A914202D940F2A31126
:10239000F6E711B903B1196008BD2BB11B68002223
:1023A000C3E901211A1D1A600430F5E7FAFFFF7F27
:1023B00010B5114B00EB41041A786389B3FBF2F3BB
:1023C00003FB0223013A1A44B2F5706F0279807858
:1023D00028BF00231A440B18B2FBF0F100FB1121B7
:1023E0005B1AB3FBF0F100FB113313446FEA434374
:1023F0006FEA5343638110BD640C0020024B03EB72
:1024000080035960704700BF640C0020034B03EB4E
:1024100080035868003818BF01207047640C002002
:102420002DE9F04F10F0070A85B0054604D040F2C0
:102430006F111720FFF7BEFD534F07F10C06B14691
:102440000446B04657F8043B8DF80BA03BB101A8F9
:1024500098479DF80A30082B01D9F521E9E79DF846
:102460000B1041BB05B131604F4506F10406E9D1BF
:10247000002D70D0DFF81491002289F800209646D4
:10248000022758F827A0013FBAF1000F56D09AF85A
:1024900004609AF802C0FF2E61D039460023481C20
:1024A00039D19C44BCF1FF0F40D90AB189F800E052
:1024B0004FF49A71BDE79DF80AC06046022838BF04
:1024C00002204B1D5A0004EB4303441E2344BDF875
:1024D00008406444013CCCF1000C04EA0C04404286
:1024E000B4F5803F03EA000302D340F20511A0E7F0
:1024F00075B19A1A0120326091701480D0709DF8E5
:102500000C001071019810814FEA104CA2F806C01F
:1025100004FB0134A8E758F8210028B190F804B072
:10252000B34504BF80781B180139B8E7DBB2E64534
:102530008AF804303CBF5FFA8CFE01227B1CA0D1DC
:102540000AB189F800E0022640F6FF6A58F82670C2
:10255000B7B9013EFAD2601B05B0BDE8F08F002389
:10256000E5E707EB41033846A3F80AA0FFF720FF91
:1025700009F10109BB785FFA89F18B42F1D8E8E7EC
:102580004FF00009F6E700BF680C0020640C002043
:1025900038B54FF6FF730380184B03EB81030246F7
:1025A0001869A8B184780379B3FBF4F104FB113303
:1025B000DBB2194600EB4105B5F90A50002D0EDBE0
:1025C0000131B1FBF4F504FB1511C9B28B42F1D115
:1025D000002038BD6381BDE838400AF0F0B900EB57
:1025E00041046389C3F30E031380C278002AF1D13A
:1025F0004FF4E5711720FFF7DDFC00BF640C0020ED
:102600001C4B03EB810370B51C69054644B30304FE
:1026100004D54FF4EC711720FFF7CCFC014620469F
:102620000AF0AFF9FF28014604D02046BDE870400B
:102630000AF0C5B9A078B5FBF0F300FB1353DBB289
:1026400019460A1D04EB4206B6F90260002E09DBAA
:102650000131B1FBF0F200FB1211C9B28B42F0D193
:10266000002070BD8B4201D00023E37004EB4202D6
:102670005580DAE7640C0020094B03EB810310B5A9
:102680001C69014620460AF07CF9FF28014604D067
:102690002046BDE810400AF092B9002010BD00BFEE
:1026A000640C0020F8B5104B03EB810307461C694E
:1026B000014620460AF065F9FF28054611D0E28858
:1026C000238953EA024606D0014620460AF077F9EC
:1026D00001463846B04720462946FFF769FE0020EC
:1026E000F8BD0520FCE700BF640C002038B50E4B98
:1026F000827903EB82030446186908B9052038BDC6
:102700008278E1799142F9D24B1CE37100EB4103ED
:102710005D89B3F90A30002BF3DBA5800AF04FF98D
:1027200020600020EBE700BF640C002070B5044679
:1027300010F003000E4603D04E211820FFF73AFC9C
:10274000FFF716FE054624B1034831460460FFF743
:102750000FFE284670BD00BF800C00202DE9F14F10
:10276000DFF870B09DF828A09DF82C901E46DBF88D
:10277000003007460D4690461BB960211820FFF730
:1027800019FC52460921404609F080FF4A4684B2AE
:102790000921304609F07AFF14FA80F1DBF80000D5
:1027A0000AF0C3F8386018B9286001B0BDE8F08FAE
:1027B00004442C60386853464146092209F029FF39
:1027C00028684B460922314601B0BDE8F04F09F0B8
:1027D00020BF00BF800C002070B50E46044609F0F3
:1027E00068FF0546304609F064FF044B2A1821466D
:1027F0001868BDE870400AF0BDB800BF800C00202A
:10280000024B186808B10AF084B87047800C0020A9
:10281000134B012200214FF0FF309A60C3F80012E1
:10282000C3F80803C3F80015C3F804259A60C3F879
:102830000803C3F80015C3F804250A490A4A03F53A
:1028400080334FF40040C3F80825C1F88000BFF37F
:102850004F8FBFF36F8FC1F88001C3F80825704711
:1028600000F0004000E100E00000F63F0A461E23B1
:1028700002F8033B0448C368C1F80330036953609E
:1028800043699360704700BF840C0020024B5A8C50
:1028900002435A845B6A1847840C0020014B0021D4
:1028A0005B6A1847840C002010B5154C05F00EFF2C
:1028B00006F078FA208DFFF7F1FF237E63B1224600
:1028C000104952F80C3BE3606368536004F119004F
:1028D000A36893600BF075FA0B4B228D93E803000D
:1028E00002F038FF236B188802F094FDA36B94F874
:1028F000341094F835009847002384F83C3010BD1C
:10290000840C00206D280000B00C0020034B93F8CD
:102910003C300BB1FFF7C8BF704700BF840C0020EC
:1029200008B5094B93F83C20022A04D040F2E62176
:102930002720FFF73FFBDA7A42F00102DA72BDE8A6
:102940000840FFF7B1BF00BF840C0020F7B5184C5A
:10295000256C06460DB1E36C23B940F2E7712720E0
:10296000FFF728FBB4F850306B702B782F4601F03E
:10297000030123F003030B4307F8033BB4F8502093
:10298000E16C384609F0D8FB0DF1020201A9606D37
:102990006564E76409F0B3FF019809F09EFFB4F89D
:1029A000501030600122606D09F046FF03B0F0BDA9
:1029B000840C00202DE9F341784C266B96F86810C2
:1029C00058B996F88B2094F85B3003EB8203FF2B09
:1029D00003D196F869308B4202D0FF2005F028FD24
:1029E000256B00238DF80130ADF8023095F880306A
:1029F000052B00F2C380DFE803F0039EA1A1B4B46D
:102A000094F85C30A5F858300DF1020101A8ADF83A
:102A1000023001F031FB38B1019828B1042385F868
:102A20008030BDF8023013E095F8C330002B7CD124
:102A3000206E0DF101020DF1020109F061FE002886
:102A400073D0BDF80230002B60D1012285F88020C0
:102A50006066A4F8703003B1C31C95F8818095F8C6
:102A6000827095F88050E366022D09D0043D012D57
:102A700000F287801B78022B4FF0030500F0838063
:102A8000206E09F098FE00287FD1032D04D001F0BC
:102A90000DFB80F00100C0B2626E13784FEAC808E7
:102AA00008F0080803F0F303BF0043EA080307F047
:102AB00004073B4323F0100343EA001323F003030E
:102AC0001D431570B4F8703053700222A4F86820CA
:102AD00096F88A2000F0010084F87400002A56D08D
:102AE000002B54D0A06F05F08FFE616EA06F06F032
:102AF000FBF896F86910012005F00CFF012384F81B
:102B00007C3084F83C3002B0BDE8F0819DF80120B3
:102B10001AB902808270032381E7027802F003026F
:102B2000012A0CBF0322022290E70023ADF80230F5
:102B3000012385F880301A48002389E7B5F858301A
:102B4000206EADF802300DF101020DF1020109F025
:102B5000D7FD00287FF465AF40F20D512720FFF725
:102B600029FA0DF1020101A801F086FA08B10198D5
:102B700010B940F21C51F1E7052350E740F226510D
:102B8000ECE701257CE7002086E7012084E7606E02
:102B900005F03AFE06F006F9ABE700BF840C002012
:102BA000DC0C00202DE9F041444C94F83C30012B22
:102BB00086B006460F465FFA83F804D040F62F0130
:102BC0002720FFF7F7F9256B95F87C302BB1002112
:102BD00085F87C100420FFF759FE95F88030042B0F
:102BE00003D137490220FFF751FE95F88B30FBB136
:102BF000206B94F85BE090F869100129D5E93A233D
:102C000005F1F00C05F5807505D0022905D040F2DC
:102C10002C410620D5E74FF0000800210120CDE926
:102C20000410CDE90015CDE902E8614605F0F4FF96
:102C3000C6BBBFB3D4F880303046984790B394F801
:102C400034307BBB256BD4F8843063644FF48173DC
:102C500094F85B00A4F8483095F88B3095F869102B
:102C600000EB8300FF2803D195F868308B4201D038
:102C700005F0DEFB95F88B30CBB1A06F05F0C4FDFD
:102C8000A16F606C06F06AF8002005F0EFFD95F882
:102C90006810002005F03EFE022384F83C3006B0A8
:102CA000BDE8F08106B0BDE8F041FFF7FDBD606C06
:102CB00005F0AAFD06F076F8E6E700BF840C0020D8
:102CC000F00C00202DE9F74FA84C0023CDE900338C
:102CD00094F83C30256B022B0646884604D04FF40E
:102CE0000C612720FFF766F9636C5A7893F800B0FF
:102CF000A4F8502003221344E3640BF0030995F871
:102D00008B30A4F84820002800F01E81CBF3C00AC5
:102D1000C3B106F05FF8831EDBB2012B04D8FFF7C6
:102D2000C3FD03B0BDE8F08F60B9B4F850304BB1CB
:102D300095F8823003F00103534503D1012384F851
:102D40003530ECE7B4F8501019B1606D09F054FD5E
:102D5000014695F88120238D21640132D2B282EAA6
:102D60009B0743F4007317F0010723856AD03746A9
:102D700095F8822002F001039A4500F098804FF008
:102D8000000A95F88A3023B105F17801284609F048
:102D900091FE236C002B40F0E780B4F85030B3FA7A
:102DA00083F35B0903EA1B1384F88B30B8F1000F3F
:102DB00000F0E48005F0B8FDBAF1000F40F00781A3
:102DC0004FF00108238D5A0606D44020FFF766FD18
:102DD000238D43F04003238527B1B4F80930013334
:102DE000A4F80930002E00F0F780B4F80530013364
:102DF000A4F80530002384F88A305D4802F0F8FA20
:102E0000009830B109F069FD00220272294601F0F4
:102E1000FDFE019B33B100221A720C220198294653
:102E200001F0C2FEB8F1000F7FF479AF238D1B06CD
:102E30003FF577AF8020FFF731FD238D43F080030E
:102E400023856EE795F880304BB3013BDBB2042B52
:102E500085F881200DD8474AD35C002B87D0022B00
:102E60000AD1206E694609F070FC88B940F2F7611A
:102E700037E740F2D66134E7032B10D101F00AF9AD
:102E800010B940F201712CE739460820FFF7FEFC2B
:102E9000D5E93832013342F10002C5E93832238DD9
:102EA000002743F4006385F88070238560E7B4F859
:102EB0005030EBB109F1FF31012919D8218D41F4CE
:102EC0008051218594F88810994206D294F83430C4
:102ED00043F0100384F8343051E7216C00293FF4AB
:102EE0004EAF94F8891019B12020FFF7D7FC46E7C0
:102EF0000132B9F1030F85F882201AD009F1FF32AF
:102F0000012A0BD8002B3FF43AAFD5E93A3201330E
:102F100042F10002C5E93A32B24632E7002B3FF4F3
:102F20002EAFD5E93A32013342F10002C5E93A3217
:102F300025E7238D1049012043F4805385F87C0058
:102F40002385FFF7A3FCECE70BB105F07FFF94F8B6
:102F50008A30013384F88A30238D4FF0000A43F41D
:102F60008063238557460CE701231BE7840C002070
:102F7000B00C0020B06F0300D00C002094F88A3011
:102F8000012B3FF617AFD4F8803001209847002876
:102F90003FF410AF94F83430002B7FF40BAF638C08
:102FA000002B7FF407AF94F8743023B994F88B307A
:102FB000002B3FF4FFAE0020FFF7FCFCBAF1000F3E
:102FC0003FF400AF494601A8FFF7C0FCFAE64946C6
:102FD00001A8FFF7BBFCF3E6B4F807300133A4F80F
:102FE00007300AE710B5064B93F83C2002F0FF04C7
:102FF00022B91C7602F0A6FB204610BD0C24FBE78C
:10300000840C00200A4B0B4A10B51A60FFF7EAFF48
:1030100020B14FF4A4712720FEF7CCFF00F08AFF07
:10302000054CC4F8840000F089FFA06710BD00BF04
:103030005C160020C4310000840C0020F7B55E4C03
:10304000089FCDE9000194F83C1001F0FF0611B98A
:103050000AB103B127B94FF408712720FEF7AAFF80
:10306000DDE9000104F12C0C8CE80300256BC4F8A9
:1030700080309DF82430626284F88930A76384F838
:10308000346084F88A6084F8356084F87C606684F3
:10309000268584F8746084F88B606666E666A4F81A
:1030A00070606664E664A4F8506005F0F1F905F01C
:1030B00079FE95F9700005F077FA6F6AE86905F016
:1030C00079FA384605F092FB95F89B0005F07CFAFA
:1030D0000BF0DEFA95F86820384B33F812304FF4D5
:1030E0007A7103F5FA73B3FBF1F3603319183046C4
:1030F00005F0D8FA324B186805F07EFB2B69236681
:103100006B696365236B93F8852093F86870293A9F
:10311000012A03D993F88620292A08D193F80A3284
:103120002BB1012F03D0012B0CBF0127022705F182
:103130003006394630460AF0D4FE39460AF049FCDA
:10314000AB8F95F86910834228BF0346304684F858
:103150005C300AF0AFFE95F88B7095F86910B5F801
:1031600044600AF036FC0FB9043080B2864228BFB2
:103170000646F3B284F8883084F85B3095F88A30DC
:1031800023B105F17801284609F094FC0120FFF7EE
:1031900011FC002323606360A360B5F87E30638078
:1031A0002B88238095F89B302371EB6E0BB10122A5
:1031B0001A6003B0F0BD00BF840C0020147103003E
:1031C0005C16002021290000C52C0000A52B000062
:1031D0000D29000010B5044609F095FC08B900203F
:1031E00010BDE04309F08FFC0028F8D0E31683EA15
:1031F000A4635A1E1A42F2D020460AF002FF182891
:10320000EDD8A3B2B3EB144F04D184EA142313F026
:10321000FF1FE4D0034B6340581E1840003818BF0E
:103220000120DDE7D6BE898EF0B5070CA7F5AA42CE
:10323000144B543A012A03EA90231FD927F4004083
:1032400042F6AA22801A18BF012000221621164633
:103250001F2487EA060562EA0505013510D0DD0363
:10326000ADB245EA5606E503ADB2013945EA520270
:103270004FEA53034FEA5404EBD1F0BD0020E4E7DA
:103280000020FAE7E0FF3F0010B5044608480BF0C5
:10329000C6FB204607490BF02EFD20460BF026FB0F
:1032A00020B1204603F00AF9002010BD1220FCE7EF
:1032B000180D0020200D0020304BF0B59A88B0F892
:1032C0005C70B0F85A60DD88974228BF1746964276
:1032D00028BF16461B2E85B00C462ED0B5F5A47F10
:1032E0002DD040F648039D4201A928BF1D4609F094
:1032F00096FCBDF80A30BB4228BF3B46E380BDF8D0
:103300000C30AB4228BF2B462381BDF80630B342B8
:1033100028BF33466380BDF80830AB4228BF2B4638
:10332000A380FF232370E3881B3B9BB2E02B08D9CB
:1033300040F2E7613920FEF73DFE1B2FCED105B0EC
:10334000F0BD63881B3B9BB2E02B02D940F2E961E0
:10335000F0E72389A3F5A4739BB2B3F5E06F02D91C
:1033600040F2EB61E6E7A388A3F5A4739BB2B3F543
:10337000E06FE4D940F2ED61DCE700BF100D002002
:10338000024B987DC04300F00100704754110020AB
:10339000044B987DC0F3400080F0010000F0010074
:1033A000704700BF5411002008B50AF073FA01F00D
:1033B00013F800F0E3FD0AF0DCFC02F087F801F0FE
:1033C00005FA04F033FD0D4B0D4A0E48002119603B
:1033D0000D4B5A600D4A198010601B20908051746B
:1033E0005182918291750A4A106811799860083269
:1033F000197307CA103383E8070008BD6016002060
:103400001B00480103021B00100D00205411002076
:10341000B86F0300044B41F64C52C3E902221B2251
:103420001A74FFF7C1BF00BF54110020024B1B6884
:1034300003B118470C20704760160020014B93F928
:1034400020007047100D0020034B5A8802801B7823
:1034500083700020704700BF5411002013B583789B
:103460001A2B044608D8042B04D9124A22FA03F373
:10347000DB0705D4122017E0292B01D03B2BF9D113
:103480002088B0F5706FF5D269460AF0C6FA68B9BF
:10349000019B93F8182102F0FF004AB9A27883F843
:1034A0001921FF2283F8182102B010BD0220FBE78A
:1034B0000C20F9E7200038040188A1F11B039BB21E
:1034C000E02B0CD84288A2F5A4739BB244F24810BA
:1034D000834204D8034B00209980DA807047122081
:1034E000704700BF100D0020034B9A88DB880280D4
:1034F00043800020704700BF100D002038B50278CF
:10350000447802F0010354EA030102F0020201D1FF
:10351000112038BDBAB98578002DF9D0002B18BF1D
:10352000002400E01D46204609F024FB0028EFD0CF
:10353000284609F01FFB0028EAD0054B00209C74A8
:10354000DD749882E5E7002BECD000242546EAE7FD
:103550005411002013B5008869460AF079FA044630
:1035600020B9019890F82A311BB13A24204602B0C4
:1035700010BD90F8CE3003F0FF04002BF5D190F889
:10358000C5309B0703D1FF2380F82A31EEE70249BB
:10359000C6300AF016FCE9E7EFE50000F8B503785D
:1035A000032B054602D912242046F8BD4378032B8D
:1035B000F9D8467E0EB11124F6E78378012BF2D1BB
:1035C00000F0D2FCC307F6D5AB7813F0010414D099
:1035D000EA78012A3AD82A693C49A2F25370884213
:1035E00036D8AC686FF41C7CA4F6C41061448842E1
:1035F0002ED8944234BF12240024980711D5EA78BB
:10360000012A27D82A6932498A4225D8A96831482F
:10361000A1F6C41C84451FD8914238BF1226264308
:10362000F4B259071DD5EB78012B0CD82B69294929
:10363000A3F6C4128A4211D8AA68A2F6C41088421E
:103640000CD89A420DD244F01204ADE71224D4E70C
:103650003024D2E71226E2E73026E0E744F03004D7
:10366000A2E7002CA0D12B7E013B062B9BD8012189
:103670002046FFF701F8064620B940F618613920C8
:10368000FEF798FC90300BF030FB18B196F85430F0
:103690009A0718D1EA78A978A868B5F800C02E7EF4
:1036A000012A1ABFB2FA82F252090222CB0748BF9E
:1036B0002F69094BC3E9050719725A72A3F80AC0AA
:1036C0001E73197470E70C246EE700BF3CF670029D
:1036D0008FFD7002CBF37002100D002000B589B091
:1036E00043798DF8043083798DF8053001238DF806
:1036F000063003788DF80730B0F8013040F27121C0
:103700004B430393B0F803204A430C490592097BCD
:103710008DF81C1000218DF81D100949A2F6C41265
:103720008A4209D8A3F6C4138B4205D801A8FFF733
:1037300035FF09B05DF804FB3020FAE7100D0020DA
:103740003C369C002DE9FF410678012E074604D146
:103750004378012B0DD9122469E0002EFBD1012101
:103760003046FEF789FF054600287CD140F672718D
:1037700007E031460020FEF77FFF054620B940F6FE
:1037800017713920FEF716FCBB88002B65D10BF0B2
:1037900066F8002863D195F8F430002B61D12846F3
:1037A000FFF772FD04460028D5D131463046DFF8D8
:1037B0000481FEF761FF98F81C3006461BB110B972
:1037C00040F63371DDE7D8F818200392002B41D082
:1037D00096F8F430002B3DD07B88DBBB98F808309E
:1037E0000093D8F8142098F80A1003AB30460BF079
:1037F000F5F878B330460BF0A3FA06F1400307461C
:1038000005F14002643653F8041B42F8041BB3422E
:10381000F9D12846FFF738FD024610B140F65A713B
:10382000AFE70C2F07D10146284603F045FA2046A2
:1038300004B0BDE8F08117B140F66371A1E798F8D4
:103840000930296D43F0040385F85430284603F00D
:103850000BFAECE7BA887988E6E71124E7E73A241F
:10386000E5E70C24E3E70BF0F9F904460028DED184
:1038700095F8543095F8892022B195F88A201343A1
:1038800085F88900053B012BD1D82B6D13B940F683
:10389000827176E701210846FEF7EEFE29460646CC
:1038A0004FF4907208F048FC0423316D86F85430D0
:1038B0003046CCE7100D00202DE9F04F447AA107E7
:1038C00089B0054655D544F001044472072C52D8FE
:1038D00000F04AFB34EA000040F0BC8195F84870E3
:1038E000002F40F0B781012C45D1AB69764AA3F295
:1038F0005371914200F2AC81EA6893423BD8AA8F9F
:10390000B5F842309A4236D8EB8E2A8E698DA88C53
:1039100009F05FF9002800F09B812B789A1E022A9B
:1039200040F29881012B26D813B9AB78012B22D80D
:103930006B78032B1FD895F84930013B062B1AD81A
:10394000DFF888B101210020FEF796FE9BF81C30BD
:103950000646ABB901210846FEF78EFE002818BFC7
:10396000064606F190000BF0C0F9804610B30C2714
:1039700002E06207AAD11227384609B0BDE8F08FED
:1039800090300BF0B2F90028E4D0D6E924126FF0A1
:1039900000439A4208BFB1F1FF3FDBD16B7A00933D
:1039A000EA68697805F1180330460BF017F880468D
:1039B0000028CFD030460AF058FF08B13A27DBE79D
:1039C00030460AF04CFF01460028F7D10DF11200F5
:1039D000FEF7DEFD0446002800F03881BDF8123005
:1039E00002933B4B0DF1140A18681B7905908AF875
:1039F00004309BF8213013B1504600F0C7FEDFF8C9
:103A0000D490002120460AF032F8029B2380D9F896
:103A10000830236395F84A3005EB430340F2E24255
:103A2000988C598D002384F872305143504301F033
:103A30001DFE40F2E242A4F8B421A061C4F8B00136
:103A400020460BF0DEFA039000F088FA039B6387B0
:103A5000214B99F810C01B6884F838C010F0200F73
:103A60000EBF1B22B9F80220B9F80410A4F85A209E
:103A700008BF1146A4F85C101BB194F970100298AD
:103A800098470123B9F8022099F80110E385B9F8A5
:103A90000430019199F800100091033303329BB276
:103AA00092B204F1140104F11000FEF757FE2369ED
:103AB00023B941F2C4113920FEF77CFA63696BB96E
:103AC00041F2C511F7E700BF3CF67002100D00206F
:103AD000AFEC0300541100206416002009F023F815
:103AE000E06101F029F920F07F40606295F84A30EA
:103AF000D9F80C1005EB430320461A8EDB8E638445
:103B000022840BF07BFA514604F18D000AF025F86F
:103B10009BF8213013B9FF2384F80532DBF82430F9
:103B200023B1012204F58D7120469847574920465C
:103B300009F05EFF01F000F90C23B0FBF3F202FB89
:103B40001300C0B2431DDBB2082B9CBF0D30C3B2C3
:103B500084F899302046012109F089FF204603F0BE
:103B6000B3FAB8F1000F03D1697830460AF0F0FEDD
:103B700005F1030BAA7829785B4630460AF095FEDA
:103B8000002861D0B8F1000F02D1304602F096FC57
:103B9000AA7829785B4630460AF0E7FEB8F1000FB4
:103BA00002D1042386F854303465A97801F0FD0170
:103BB00000395A4618BF012130460AF0F1FE2B7831
:103BC000C3B1012130460AF006FFB8F1000F43D01F
:103BD000042130460AF093FE00287FF4CDAE0C2776
:103BE00020880021FEF75EFD00283FF4C5AE41F2BB
:103BF000964160E7AA7805930292CAF804305046CD
:103C0000FEF774FD0028DCD1DDF814904C45F6D0A9
:103C1000029B99F8022003F0FD00003818BF012034
:103C200009F10303594609F036FE0028E7D099F858
:103C30000920607A09F10A0304F10A0109F02BFE58
:103C40000028DCD00B27CBE71227C9E70D2793E626
:103C5000302791E611278FE6EB6806936B7A8DF893
:103C60001480DB0704D5AB69079301238DF814306A
:103C7000514630460BF03FF895F8491030460AF0AF
:103C800011FE2146304602F0EFFF75E66611002076
:103C900010B54379032B94B056D823F002038DF866
:103CA0000630D0F80630CDF807304389ADF80B3038
:103CB00001238DF80D30038802798DF8042040F23D
:103CC0007121027B8DF805204B43049342884A43BF
:103CD0000792847B417B41EA0421ADF82810047CE3
:103CE000C17B41EA0421ADF82E10847C417C41EA7D
:103CF0000421ADF83410047DC17C41EA0421ADF803
:103D00003A10417D847D41EA0421ADF84010C17D27
:103D1000007E41EA0021ADF8461000218DF84C10DC
:103D20000B488DF84E100B49007B8DF84D00A2F624
:103D3000C4128A420AD8A3F6C4138B4206D801A83B
:103D4000FFF7BAFD14B010BD1220FBE73020F9E7F1
:103D5000100D00203C369C0038B501210020FEF7F4
:103D60008BFC054620B941F2C9413920FEF722F902
:103D700090300AF0BAFF1D4B1B7F4BB3E0B195F8B2
:103D80005430053B012B17D828460AF0D9FF0446CA
:103D900010B141F2D441E8E7284602F021FB95F842
:103DA000543023F0040385F8543022462146284637
:103DB00002F082FF204638BD01210846FEF75CFC78
:103DC000054610B94FF4A751CFE790300AF08DFFA8
:103DD00008B90C24EEE728460AF0B2FF0446002892
:103DE000E8D1284602F0FCFAE4E700BF100D0020FD
:103DF0000278034672B1427862B142881A2A09D920
:103E000082881A2A06D9044A006810609B88938029
:103E1000002070471220704754110020024B0268A6
:103E20009A600020704700BF54110020024B0268C6
:103E3000DA600020704700BF541100200378A3F11E
:103E40000A02112A9DBF024A0020137412207047F3
:103E5000541100200378FF2B14D14378FF2B11D18C
:103E60008378FF2B0ED1C378FF2B0BD1037923F07E
:103E7000E0021F2A06D11F2B04D0034A5B091373EB
:103E80000020704712207047100D002008B5052053
:103E900000F058F80BF0BCF9014B024A5A6208BD19
:103EA000100D0020B932000010B50A4C072000F0B8
:103EB00049F8201D084909F0FBFA04F108000749F8
:103EC00009F0F6FA04F10C000549BDE8104009F0CC
:103ED000EFBA00BF380D00204C0000205400002035
:103EE0005C00002038B5074C0D4600F073FD60689B
:103EF000256009F0D5FAFFF78DFA00F035FF0123B0
:103F0000237438BD380D0020014B187C704700BF6A
:103F1000380D002010B5064CA06809F0C1FAE06821
:103F200009F0BEFAFFF740FA0023237410BD00BF6A
:103F3000380D002000487047490D002000487047A8
:103F40004B0E0020C208044900F007000123834003
:103F5000885C03438B54704710000020014BD3E969
:103F60000001704710000020034B1868C0F30020C8
:103F7000400040F0010070471000002008B505F037
:103F80001FFC084A002332F82310814205D302EBBC
:103F900083029378044A137008BD01330C2BF2D1CD
:103FA0000023F7E7CC6F03004D0F0020024B187879
:103FB000072828BF072070474D0F002010B5446820
:103FC0002388A4F8683194F8683084F86711012BCD
:103FD00006D0022B04D040F211310620FDF7EAFF93
:103FE00084F86A3194F86930012B01D0022BF2D1A8
:103FF00084F86B31044904F5AF7009F0E2FE002348
:1040000084F8243110BD00BF57D50000406808492E
:104010000388A0F85A3190F8603080F85C3190F84D
:10402000613080F85D3100F2511009F0C4BE00BF6C
:104030006DD50000024B002283F822209A8470473D
:104040004E0F0020044B93F82220012A1ABF036070
:1040500001200020704700BF4E0F0020054B93F851
:104060002210012902461DBF012083F822009A84F4
:10407000002070474E0F0020054B024693F82200A7
:1040800020B1136009B19B8C0B800120704700BFE9
:104090004E0F0020044B93F8220000229A8410B1A6
:1040A00083F82220012070474E0F0020034B93F825
:1040B0002200B0FA80F04009704700BF4E0F002088
:1040C00050B90A4A1346012003F8010B0868C2F8E8
:1040D00001008A889A807047012805D1034B0A683D
:1040E0009A608A88D8719A81704700BF740F002047
:1040F00050B90B4B187888B1D3F80120B3F80530CC
:104100000A608B8001207047012806D1044BD879C2
:1041100020B19A680A609B89F3E70020704700BFCE
:10412000740F002010B9044B18787047012806BF9F
:10413000014BD87900207047740F0020F7B5002399
:104140008A888DF80600ADF8042008680B4A8DF8BF
:104150000730019D1478014602F5A872D8B2844256
:1041600001D8082008E052F8087F5668AE4208BF20
:104170008F4203F10103F1D103B0F0BD880F00209D
:1041800030B5094B01465C78002203F20113D0B22E
:10419000844201D8082005E013F8015F8D4202F146
:1041A0000102F4D130BD00BF880F0020F8B52D4CBE
:1041B0006378013BDBB22218834292F802516370AC
:1041C00030D01A010101961C8F1C2644274406F1A9
:1041D000100C56F804EB47F804EB6645F9D182322F
:1041E00082312244214402F1100652F8047B41F846
:1041F000047BB242F9D1E118221891F8026182F8E9
:10420000026106267343704303F5857300F58570DC
:10421000E618E35823502718B388BB8091F83A3149
:1042200082F83A312846FFF7ABFF082818D12378E7
:10423000013BDBB29D42237012D02B3304EBC3034E
:1042400093E8030005F12B0204EBC20282E80300AD
:104250002078FFF795FF08281CBF241884F8025126
:10426000F8BD00BF880F0020F0B5254D95F89841A6
:1042700089B0224605F29911684607F05DFF214694
:10428000684609F026FB0446B8B300EB4001C9B20A
:1042900002A8FDF7CFFF631E95F8A161DBB20124F0
:1042A00095F8981105E0721CB2FBF1F001FB1022A9
:1042B000D6B206F120020DEB020010F8202C002AE5
:1042C000F1D103EB43012031694406EB46022A4455
:1042D00011F8187C82F8A27111F8177C11F8161CDD
:1042E00082F8A37182F8A41100F8204C013BAA19AE
:1042F000DBB2FF2B82F89941D2D109B0F0BD00BFEB
:10430000880F002070B5064688B00C46002A4ED0B3
:10431000294A92F8A131D01890F8991119B9FF21C2
:104320002820FDF747FE03EB43011144013391F8C8
:10433000A251E57091F8A35191F8A4116171002187
:10434000257180F8991192F89811B3FBF1F001FBF7
:10435000103382F8A13192F8C23123B9174902F51E
:10436000DD7009F02BFD657905F03F0545F040054E
:1043700065710D220021684607F05CFEE3788DF838
:104380000F3023798DF80E3004AA04236946304695
:104390008DF80D5007F0D6FC9DF81F3023709DF866
:1043A0001E3063709DF81D30A37008B070BD0321EE
:1043B0006018FDF73FFFD6E7880F00206942000034
:1043C000044B5A78824286BF1B1893F842010020A2
:1043D000704700BF880F0020064B00224FF4617128
:1043E0001A8083F8C32183F8C421A3F8C61183F887
:1043F000C2217047880F002010B51446FFF79EFEBB
:10440000082813D0FFF7BCFE094B5A7882420DD919
:1044100004B12070184490F83A3190F84A01012B09
:1044200008BF40F0010000F0010010BD0120FAE7D4
:10443000880F00202DE9F0478246894617469846A6
:10444000FFF77CFE08280546064603D0FFF798FED6
:10445000082860D1324C6378072B5ED8082D15D11F
:104460002678731C072E237003D96C212820FDF7B2
:10447000A1FD06F12B02D9F8000044F8320004EB4C
:10448000C203B9F804209A8083F806A065786B1CF3
:10449000290163704B1C07F11002234412F8010D2F
:1044A00003F8010FBA42F9D1813108F11003214418
:1044B00013F8012D01F8012F9845F9D1102140463C
:1044C00009F04DFA2544102185F84201384609F0DB
:1044D00046FA85F80261667885F84A01002311489A
:1044E00085F83A31314609F0F4F90128054607D834
:1044F0000D48314609F0EDF9002818BF0135EDB23D
:1045000084F898510025284684F8A151FFF7ACFEA5
:104510002846BDE8F0871220FBE70720F9E700BF37
:10452000880F0020CA100020D210002010B5064BC2
:104530005878013840B2002800DA10BDC4B22046D5
:10454000FFF734FE601EF5E7880F0020014B83F86B
:10455000C3017047880F0020014B93F8C3017047D7
:10456000880F0020431E9BB24AF2B71293429DBFB0
:10457000024BA3F8C601012000207047880F0020DD
:10458000014BB3F8C6017047880F002030B50A4BC5
:104590005C7884420ED9184490F802012B3003EB6A
:1045A000C004A5790D7053F830001060A388938083
:1045B000012030BD0020FCE7880F0020024607489C
:1045C00010B590F8C34124B1417821B1023003F015
:1045D0004FFC204610BD0C46FBE700BF880F0020B3
:1045E000F8B5184C064648B3617804F5A17009F097
:1045F00070F994F898510746294604F2991009F089
:1046000068F92D1AEDB2AF421AD800256278EBB2E4
:104610009A4201D80120F8BDE21892F842215AB915
:10462000062101FB034104EB0313324601F58571BA
:1046300003F18200FFF766FE0135E7E70546E5E78F
:104640000020E8E7880F0020F0B51B4E7378834206
:1046500089B007460D462CD9331893F8424144BB24
:104660000D222146684607F0E5FCEB788DF80F3007
:104670002B798DF80E3006EB07106B798DF80D3025
:1046800004AA04236946823007F05CFB2A789DF86F
:104690001F309A420AD16A789DF81E309A4205D19D
:1046A000AC789DF81D30E31A5C425C41204609B0AD
:1046B000F0BD0020FBE700BF880F0020074B5A78B1
:1046C000824209D91A1892F842212AB9062202FB1D
:1046D000003000F58570704700207047880F00207B
:1046E000F8B50E46074606213046154609F037F95B
:1046F000044670B10C4B0022587803F23913D1B242
:10470000884202D801242046F8BD03F8015F013237
:10471000F5E73146384609F0F8F80828F3D0024B9F
:10472000034483F83A51EDE7880F0020034B80F8EB
:1047300070101B680BB1008818477047681600207E
:1047400030B500248487B0F8404042F210754C43E5
:10475000B4FBF2F4A0F84040541E05FB0343B3FB46
:10476000F2F3C387084BB3FBF2F30133A0F84430F4
:10477000038F05FB0344036BB4FBF2F4594344631A
:10478000B1FBF2F1016330BD005A6202054B1B78A8
:1047900033B9054B1A681B79026003710120704719
:1047A000002070475011002018000020054BFF2208
:1047B0001A70054A016811600179117100221A709E
:1047C000704700BF501100201800002007B5064AAE
:1047D0001068009012798DF804206846FFF7E6FF14
:1047E00003B05DF804FB00BFAFEC030003460846CE
:1047F00071B13F2B0BD8074AD35C03F07F02914283
:1048000005D08CBF0120002000EAD31070470120A2
:10481000704700BF147003002DE9F7430E46694648
:104820001546994609F0F9F8044620B9019F35B9B3
:10483000012387F88C30012003B0BDE8F083D7F85E
:1048400010802946404607F005FF01460028F3D0B6
:10485000104B5B88AB421BD3404608F03AF897F800
:104860008C30A0F80140002B18BF0226494600F802
:10487000036B2A4607F060FC2946404607F025FFF7
:1048800018B98B212B20FDF795FB87F88C40D2E7D8
:104890002046D1E754110020FF230B7002234B70F8
:1048A00083238B70014B1B78CB7070476C110020F9
:1048B0002DE9F84FD0F80480D8F8146030460C4643
:1048C00007F0F9FF054620B940F253111020FDF71B
:1048D00071FB0146304607F0FCFFB5F800B01FFA47
:1048E0008BF7824617B940F25711EFE7224B1B684E
:1048F00000F10309D3B998F8003098F8012023702B
:104900006378A4F802B002F00F0223F00F03134300
:1049100023F0C00363709AF8003003F00303012B07
:104920000FD0022B0DD040F27511CFE7B8F8000080
:104930003A464946984705460028DCD12846BDE856
:10494000F88F627863F305126270304607F0C7FF94
:10495000054610B940F27F11B8E7FB2F02D94FF49A
:10496000C771B3E73A464946201D07F0E5FB3046DC
:1049700007F010FFE2E700BF6C16002038B5134CBB
:1049800010220021201D07F055FB0125257410225F
:1049900004F10803002104F11400C4E9013307F015
:1049A00049FB84F8205004F11803C4E90533084A90
:1049B00000236362A36284F82C30C4F82D30C4F85D
:1049C000313084F835301360A36338BD6C1100209A
:1049D0006C16002010B5084C2378FF2B04D04FF440
:1049E000CC711020FDF7E6FA07F0F2F92070BDE86F
:1049F0001040FFF7C3BF00BF1D00002010B5034CDF
:104A0000207807F0FFF9FF23237010BD1D00002060
:104A1000014B187807F006BA1D000020014B024A2E
:104A20001A60704770160020B14800002DE9F3416C
:104A3000DFF86881054608F11407D8F80830D8F87F
:104A40001840227A012A22D1D8F8382052B1137A9C
:104A50001BB9BF211020FDF7ADFAD8F83840C4B912
:104A6000002083E01A7A012AFAD04D4A1C46EFF35F
:104A7000108172B650680068506001B962B6A342F6
:104A800008BFC8F83840237A1BB9EE21E2E73A465E
:104A9000EDE7267AF6B205232372731E0B2B6ED830
:104AA000DFE803F06A062235676D3E6D6D6D6D5B64
:104AB000636813B940F20B21CCE72046294698479A
:104AC0000420EFF3108272B6237A052BD9B24FF08F
:104AD000000359D12372D8F83810A14201D1C8F887
:104AE0003830B2BB62B634E0636813B94FF4057175
:104AF000B0E72946204698470346C3F30723012B16
:104B0000ADF80400C0B22FD0022BDAD11AE06368EE
:104B100013B94FF407719DE7204698470020D0E76E
:104B200063680BB9FE2195E70D222A7001221988CE
:104B3000AA706A7100221869A5F80310AA7107F01B
:104B400029FE0420D8F83830A34202D10023C8F847
:104B5000383000283FF471AF08E0124B29461B683B
:104B600020469847034668B9267298B102B0BDE85E
:104B7000F08140F253216DE740F256216AE740F29E
:104B8000592167E70220DDE711B940F27A2161E798
:104B90001846A6E7002B7FF450AF61E76C110020A8
:104BA000701100207016002010B51346027A22B151
:104BB00040F201311020FDF7FDF90A46BDE8104032
:104BC0000146014809F0D7B870110020044890F858
:104BD0002C301BB90349243009F0EAB8704700BFF4
:104BE0006C11002069DD00000346064890F83C2067
:104BF0003AB190F8352022B900F82D3B024909F06E
:104C0000D7B870476C1100209948000010B50A46CB
:104C1000037A23B140F209311020FDF7CBF90146A8
:104C2000BDE810400148072309F0A5B88011002015
:104C30001346027A0AB1037270470A4601460148D8
:104C400009F099B8701100201B234FF01B128384C8
:104C5000038482618382C260038539B94FF4A473EF
:104C6000034AC3844384C261C3820261704700BFA8
:104C7000480148010346F0B4B3F85420B3F8484063
:104C8000B3F84460DF8FB3F84250944228BF144613
:104C90000846B3F84C20B3F85610DC878A4228BF88
:104CA0000A46B3F84610A3F84220914238BF114695
:104CB000A64238BF2646A742A3F84460A3F8461090
:104CC0001FD1AA1A18BF0122B3F84A50B3F85040B6
:104CD000B3F852709E8FB3F84010A54228BF254606
:104CE000B3F84E409D87BC4228BF3C46AE42A3F875
:104CF000404002D1A14200D12AB1F0BC034909F0E1
:104D000060B80122E0E7F0BC704700BFC9DD0000D9
:104D10000B8BA2F80B304B8BA2F80D308B8BA2F8CB
:104D20000F30CB8BA2F809000249A2F811301046CF
:104D300009F041B819DE0000094AD2E900034340F6
:104D400083EAB01181EA43214FEAF3435360054BF4
:104D5000116058434FEAF06000EB8000704700BFDD
:104D600020000020BB79379E10B50A4C0948082165
:104D7000FDF760FAD4E900321343F7D0064CFFF791
:104D8000DBFF2060FFF7D8FF236860601843F6D090
:104D900010BD00BF20000020AC11002038B5A0F1EC
:104DA0000B03DBB2432B144698BF0C4A0D4620463A
:104DB00094BFD15CFE2109F039F968B965B1297851
:104DC000272907D03F2908BF3E212046BDE83840AB
:104DD00009F02CB92621F8E738BD00BF5470030054
:104DE000174B184A9A60184ADA62184A1A61184A28
:104DF0005A61184A9A61184A1A63184A5A62184A3C
:104E0000DA64184A9A64184A9A63184B184A9A60E6
:104E1000184A1A62184A5A60184A1A60184A9A625E
:104E2000184ADA62184ADA60184A9A61184A1A630C
:104E3000184A9A64184ADA64184A5A62704700BFDE
:104E40007416002061E1000077E4000045E40000F2
:104E500009E40000A55100005D530000515200001C
:104E600079E5000095E50000095200007417002064
:104E70007DE1000041E5000091E1000095E20000C5
:104E8000D5E4000093E40000F7E40000B7E400007C
:104E90000DE60000B5E50000B1E500005BE50000AF
:104EA000054B064A1A65064A5A65064B064A1A65B4
:104EB000064A5A65704700BF741600202FE30000B1
:104EC000C9E2000074170020AFE20000C7E3000051
:104ED000054B064A9A65064ADA65064B064A9A6504
:104EE000064A1A66704700BF74160020E1D600001B
:104EF000CFD7000074170020D5D5000025D80000BA
:104F000070B505460C46252A00F20981DFE812F04B
:104F100026005B0076008200070107010A019D0060
:104F20009F00A5000A010A01A80007010701070167
:104F30000701B3000A010A01C700C700DE0007012C
:104F4000E500070107010701070107010701070144
:104F5000070107010701EA00F7000001456840F278
:104F6000E240D5F81412B5F80E22B1FBF0F323712C
:104F7000C3F307236371B2FBF0F26270B5F8183225
:104F8000A3711B0AE371B5F81A3223721B0A63720C
:104F900095F80F3133B905F5037305F5047228460A
:104FA00009F003F9B5F80C32A3721B0AE372D5F8C5
:104FB000103240F2E242B3FBF2F3A370C3F30723D3
:104FC000E3700C2070BD4668D6F80032C1F801309D
:104FD00096F804324B71406890F80F313BB909F0F4
:104FE00085F86B68B3F87E301844A6F80602B6F868
:104FF0000632A3711B0AE3710820E3E702784368D5
:10500000012A02D193F8103101E093F8193163704D
:105010000220D7E74368D3F84422C1F80120D3F82F
:105020004822C1F80520B3F84C22A1F80920D3F892
:105030002422C1F80B20D3F82822C1F80F20D3F87E
:105040000031C1F813301720BCE74368DAE708469F
:1050500000F038F90028B5D147E000F045F9F9E74C
:1050600059228A7000221023CA70A3224B700A7141
:105070004B710620A6E70278436852B993F81021D5
:105080003AB193F80D214A7093F80C31A3700320C4
:1050900098E793F80B21627093F80A31F6E74368BA
:1050A000B3F854204A70120A8A70B3F81221CA70F9
:1050B000120A0A71B3F850204A71120A8A71B3F8C1
:1050C0001031CB711B0A0B7209207BE7436893F800
:1050D00026214A7093F82731D8E70146204608F088
:1050E000D3FAB7E7104B1B6823B940F20D5151209A
:1050F000FCF760FF024623209847042062E70A4B32
:105100001B68002BF1D0024624209847052059E760
:10511000054B1B68002BE8D002462520F5E74FF42D
:10512000A161E4E701204DE7741800203F289ABFF1
:10513000024B53F820000020704700BF7416002077
:105140003F289ABF024B53F820000020704700BF51
:1051500074170020F7B545682E6904464FF6FF77AF
:105160000DF102010DF101023046ADF8027007F0B9
:10517000C7FA01A9304607F0E8FA40B1019807F0F4
:10518000ACFB616800220272FFF740FDE8E70449CA
:1051900005F19E0003B0BDE8F04008F00CBE00BF72
:1051A000F5E0000038B5436893F885201F2A0446CF
:1051B00024D1002283F8C32083F8BE2083F84E2236
:1051C000436893F8C4101D8803F5C97069B10C4990
:1051D00083F8C420A3F89C5183F89B2108F0E8FDD4
:1051E0006368002083F8850038BD012283F89B1195
:1051F000A3F89C51034983F89E21EFE70220F3E7CF
:10520000F5E30000E7E3000038B5446894F8865001
:10521000C5B9D1F801200C4BD1F8051013400B4A49
:10522000C4F8D430C3F3076343F008030A4084F89A
:10523000D730C4F8D82008F022FF042384F8863041
:10524000284638BD0125FBE72FC904F76FDB008036
:1052500010B5406890F88530042B2ED1D1F801307C
:10526000D1F80540C0F8D430C3F3076343F0080316
:1052700080F8D73000234A1CC0F8D84080F8BE30F0
:1052800080F8853080F82B3190F8743103F0FF04FA
:105290000BB1002010BD0388A0F8763180F875416D
:1052A000D1F80130C0F878315368C0F87C31044936
:1052B00000F5B67008F07CFDEBE70120EAE700BFDF
:1052C0001FE5000010B50446FEF748FE044A054BF2
:1052D00002400B40C4F80120C4F80530092010BD7D
:1052E0002FC904F76FDB008037B50C464568FEF721
:1052F00035FE0A4A0A4B0A4095F8D4100192034041
:1053000000930B408DF800306B4603CBC4F80100CE
:105310000920C4F8051003B030BD00BF6FDB00806A
:105320002FC904F738B5DB04154604D5C37C13B187
:105330000023036338BD046B0134046309F047F9AB
:10534000436B9C42F6D30023036303492846BDE820
:10535000384008F036BD00BF6BE5000038B5446842
:1053600094F88530012B054603D094F88630002B45
:105370003AD194F8C530980713D44A7884F8CF20EE
:105380004A88A4F8D0208A88A4F8D22043F00202E8
:1053900084F8C520DA070FD5144904F1C60008F0D7
:1053A00010FD94F8C530DB0711D494F8863043B172
:1053B00053214020FCF7FEFD94F82A31002BEBD15D
:1053C000EFE7012384F88630284608F058FE94F869
:1053D0008530012B4FF0000301D0002038BD84F848
:1053E000853084F8BE30F8E70120F7E7EFE50000EC
:1053F00070B54568044602F0F7FC054B85F883005C
:105400001B6801461BB12046BDE87040184770BDBF
:105410007C180020024B1B6803B11847704700BF7F
:1054200078180020F0B51F4D2B78002414709BB124
:10543000013B6D68DBB21E1B012E0FDC05EBC406C1
:1054400055F8347076688E4208BF874227D0B8423C
:1054500071EB060612D214700020F0BD1E197710F1
:1054600005EBC70E55F837C0DEF804708445C6F367
:1054700047068F412CBF33463446DCE705EBC304B7
:1054800055F8335064688C4208BF854206D0A84264
:1054900071EB040428BF01331370DDE71C46147060
:1054A0000120DAE7C411002010F0070208B503D08C
:1054B00063214820FCF77EFD18B1034B1972586038
:1054C0001A70C80008BD00BFC4110020014B0022A3
:1054D0001A707047C4110020014B00221A607047F7
:1054E000D411002008B5044B186810B9FFF7F4FF79
:1054F00008BD0C20FCE700BFD4110020024B187936
:10550000003818BF01207047D411002013B5CDE931
:105510000012054BFF225A7100F11003DDE9000172
:1055200083E8030002B010BDD4110020C3693BB969
:1055300083692BB9034B1B681B1A584258417047AB
:1055400001207047D411002030B50D4AFF2313719C
:10555000D0E9065373B1D0E902140C44D9689D61B7
:105560002144D960816939B1CB610023C0E9063398
:10557000137130BD1560F5E7002BF6D0D960F4E764
:10558000D411002010B5124AFF231371C16189B9EB
:105590001368836103B1D8611060C1690023C360DF
:1055A00099B1CB687BB18468A3420AD230213720FD
:1055B000FCF700FD8B6988618361002BEDD0D86119
:1055C000EBE71B1BC3600023CB600023137110BDEE
:1055D000D4110020014B1868704700BFD41100207F
:1055E000034B1B68002003B9704718469B69FAE714
:1055F000D41100200B4B00221B6830B504464FF03D
:10560000FF35104623B911B9002808BF104630BD38
:10561000DA68A24203D3AA423CBF154618461A468E
:105620009B69EFE7D411002070B50F4CFF23237165
:10563000036A1BB181689D68A94203D2E521372026
:10564000FCF7B8FCC2698669DA619E6152B1936168
:105650009A691AB1D361C26811444A1BDA60002307
:10566000237170BD2360F3E7D4110020F8B52A4EF2
:1056700004464FF0000C084686F805C00021356846
:105680000B4685B97579002DF6D15BB1984225D3CB
:10569000B0FBF3F1013C03FB01F51C44B4FBF3F454
:1056A0008C420ED9F8BD2F690BB19F4207D23B4601
:1056B00027B94FF4A3713720FCF77CFCA98AAD69A8
:1056C000DFE7B5FBF3F603FB165626B9B5FBF2F69A
:1056D00002FB1656DEB10139ED1AE1E7451E1D4405
:1056E000B3FBF4F4B5FBF0F5AC42DBD3B3FBF5F65A
:1056F00005FB16374FB9B6FBF2F702FB176727B960
:10570000B6FBF1F701FB17671FB10135ECE728463F
:10571000C8E73046C6E700BFD4110020FF230B7056
:10572000074A0D234B7082238B701368C1F8033036
:105730005368C1F807309368C1F80B30704700BF59
:10574000DA11002002481622002106F073BC00BFC7
:10575000DA110020F7B5174C02AB03E90300637DB3
:1057600033B30D46D1E9687608F092FF95F86820CA
:10577000114B124933F8123060304FF47A7203F251
:105780003F63B3FBF2F3DB1946F100061B182A88CE
:105790006360B5F87E30228046F10006022204F1F3
:1057A0000C00A660638003B0BDE8F040FFF740BA8C
:1057B00003B0F0BDDA110020147103001D57000082
:1057C000024B1B68002283F870207047F011002004
:1057D00008B502F009FB014B187008BD2800002035
:1057E000024B18686C3001F07DB800BFF01100204A
:1057F00038B50F4CFFF7F4FF656801F049F86368AE
:105800002860186820B940F2F5413220FCF7D2FB3D
:1058100009F01EF910B940F2F741F6E702F0F4FF83
:10582000002003F023F8636804221A7138BD00BF1A
:10583000F011002070B52B4C63680646186809F01B
:1058400007F9054620B941F2C8313220FCF7B2FB16
:10585000236893F8543013B941F2CE31F5E776B1AD
:1058600008F03BFA30B163681A79022A0ED841F287
:105870004E31EAE7284608F048FA0028F3D1636879
:105880001A79022A17D841F2AE31DEE71A79082ACE
:1058900002D941F24F31D8E71B79A26803F1804366
:1058A0001269033B284652F8233098470C2812D936
:1058B00041F2E131C9E71A79082A02D941F2AF3140
:1058C000C3E71B79A26803F180435269033B52F896
:1058D00023309847EAE7A368DB68BDE8704053F8D7
:1058E00020301847F011002008B5074B93F900202D
:1058F0007F2A04D140F29B313220FCF75BFB02701F
:105900007F221A7008BD00BF2800002010B504785F
:105910008EB004F00F04224604A909F0BAF8FFF78C
:1059200057FF042C33D11B4C059A2368107893F849
:10593000741088422BD1507893F87510884226D184
:10594000907893F87610884221D1D07893F8771028
:1059500088421CD1107993F87810884217D1517978
:1059600093F87920914212D19DF8212093F87A3052
:105970009A420CD10DF10F00FFF7B6FF9DF90F30E1
:105980000093237C227B606804A909F073F803204C
:105990000EB010BDF011002010B50D4A53681979F2
:1059A000022904D84FF4A6513220FCF703FB1979E1
:1059B000082902D941F2C141F6E71B79926803F147
:1059C00080439268033BBDE8104052F823301847EB
:1059D000F011002010B5054C637B2BB102F074FF71
:1059E00002F078FA0023637310BD00BFF0110020AD
:1059F00010B5064CFFF7EEFF636801221A71FFF73E
:105A0000EFFE2068BDE8104009F0A9BAF0110020AF
:105A100010B500B919B9BDE81040FFF7E9BF0D4A4C
:105A200053681979082904D841F290413220FCF7D3
:105A3000C1FA19790C2902D941F29141F6E71B7993
:105A4000926803F180435268093BBDE8104052F868
:105A500023301847F011002038B52F4CFFF7C0FE57
:105A6000656800F015FF63682860186820B940F287
:105A700052413220FCF79EFA08F0EAFF054610B9C1
:105A800040F25441F5E7236893F889306BB12368FD
:105A90001A6D93F88A10C3F8F02093F854200A4343
:105AA00083F85420002283F8892063681A795AB158
:105AB0001B79012B08D02068002109F048F918B99A
:105AC000BDE83840FFF794BF2368144A93F8883044
:105AD000D05C02F079FD0121252002F0A9FC2846C6
:105AE00002F092FE0121084602F07CFDE81CFEF760
:105AF00065FD607320B102F0D3F9402002F0D8FEBA
:105B0000626800230821E373A3732374D380032303
:105B100021735171137138BDF0110020987003008A
:105B200070B5384C63681B79012B054604D940F6E3
:105B300008113220FCF73EFA02F0AAFC02F0C4FE83
:105B400002F0C8F9304802F057FE304802F04EFE2D
:105B50002F4802F02FFD6B7A23B123681B6E0BB127
:105B600001221A602B7A032B02D140F63A11E0E7AA
:105B7000206893B9032190F8882090F84A500E4687
:105B80000132B2FBF6F303EB4303D31ADAB245FA60
:105B900003F3DB072BD580F8882090F9580002F03A
:105BA00003FDFFF759FF256895F84830F3B1D5E9B3
:105BB00020126FF000439A4208BFB1F1FF3F15D0A9
:105BC00003F07EFED5E92023904299410ED323684D
:105BD00093F8483083B92568FEF7D2FC044603F0F9
:105BE0006FFE0C4BE4FB0301C5E9200170BD0139D8
:105BF00011F0FF01C4D1CEE70120FEF7F1FC00282F
:105C0000F4D0E8E7F011002030650000555555004C
:105C1000D6BE898E40420F002DE9F8435C4F064600
:105C20007869D7F80080002303704370894602F03A
:105C300007FE054630B90320FEF7D6FF00252846AB
:105C4000BDE8F8837C69032E23782FD123F00F035E
:105C500043F0030323700C2363707869D8F8743021
:105C6000C0F80930B8F87830A0F80D3098F87A10FC
:105C700008F029F83B6893F8482093F8418003F135
:105C80004209002A62D14C4678692368C0F8033083
:105C9000A388A0F80730414608F008F83D4BD3F838
:105CA0000431002B66D002F011FDC4E723F02F036E
:105CB00043EA49133968222243F0050362702370D6
:105CC0000B6DDB69C4F80F300B6D5A6AE274100A71
:105CD000120C207562759A8D40F2E240B2FBF0F230
:105CE000A2759A6AB2FBF0F2E275C2F3072222763D
:105CF0009A69B2FBF0F26276C2F30722A2761A8C9E
:105D0000E276120A22775A8C6277120AA277D3F8C7
:105D10008E20C4F81F2093F8923084F823300B6D46
:105D200094F8242093F8993022F01F0203F01F0307
:105D3000134384F82430FEF739F994F8243003F043
:105D40001F0343EA401384F8243086E793F8542075
:105D500052070CD593F84C204AB193F84D00FEF74A
:105D6000ADFC044600288ED04FF001088CE77B681C
:105D70005879F4E7052E7FF462AF3B6821681A6D0D
:105D8000C2F80A10A188D1811B6D83F8098056E7FB
:105D9000F01100200010004010B500210320FFF793
:105DA0003BFF18B9BDE81040FFF722BE074C0321A6
:105DB000206808F0CCFF0028F4D00121084602F04A
:105DC000A9FD636809221A7110BD00BFF0110020FF
:105DD00038B5184D6B68186808F03AFE044620B9CB
:105DE00040F261513220FCF7E5F86B6828680A221E
:105DF0001A71002100F070FF2B681A6D237892F859
:105E00008D4004EA531404F0010421460520FFF7F5
:105E100003FF18B9BDE83840FFF7EABD2868042140
:105E200008F095FF0028F5D02B681B6D83F88D4096
:105E300038BD00BFF01100202DE9F04F734C95B034
:105E40000546FFF7C5FC236893F8543013F0060F9E
:105E500004D001229621002009F073FA2E7806F072
:105E60000F06284632460AA908F013FE0B9D55B3CB
:105E70009DF83930012B50D16B7903F0C003A3F1A9
:105E800040056B426B41627B4AB143B1656807F0E4
:105E900046FD636868715B7923730123A3736368AC
:105EA000587908283BD10B999DF8390008F0D8FBA8
:105EB00062680B99054605329DF83900FEF79CFA99
:105EC000636800283DD0226892F8543013F0030133
:105ED00006D0062E9DBF92F84B102943C9B200216F
:105EE000606801F0010113F00403817106D0062EF1
:105EF0009DBF92F84C301D43EBB2002303F0010329
:105F0000C3710B9BF3B19DF8391082F87A101968B0
:105F100051679B88A2F8783014E00023B3E708AA01
:105F20000DF11F01FEF732FB20B940F6BA313220E5
:105F3000FCF740F89DF81F0008A908F091FB054602
:105F4000C1E7D880062E00F2C680DFE816F06100B7
:105F5000E4000700C400C400C400240002F0B6FB43
:105F6000266896F85430980713D06568AB7983B1EA
:105F700008A8FFF7B9FC9DF920300293237B019319
:105F8000FF230093022206F142030AA9284608F0E3
:105F900061FD03251DE06568AB79002B00F09B8057
:105FA000266896F85420910719D508A8FFF79CFC9D
:105FB0009DF920300293237B0193FF230093284611
:105FC00006F1420306220AA908F044FD00232374C7
:105FD0000925FFF7FFFC284615B0BDE8F08FD30771
:105FE00079D5570701D502F071FB08A8FFF77CFCB3
:105FF0009DF9202023680292227B0192FF220092C9
:106000004233062260680AA9C1E700BFF0110020F0
:10601000236893F85420560738D56168CA79002A56
:1060200034D00B9A93F85A001578854256D155789A
:1060300093F85B00854251D1957893F85C008542D6
:106040004CD1D57893F85D00854247D1157993F806
:106050005E00854242D1507993F85F2090423DD155
:106060009DF8392093F85900151A6A426A4193F84D
:10607000560001284DD0002A4BD193F84D30082B03
:1060800002D04A799A4244D002F020FB6568AB798D
:10609000002B3CD0266896F85420900720D508A8FD
:1060A000FFF722FC9DF920300293237B0193FF230D
:1060B0000093284606F1420300220AA908F0CAFC10
:1060C0000123237409256368DA79002A81D19B7939
:1060D000002B7FF47EAF02F0F9FA5AE70022C6E700
:1060E000D10714D5530701D502F0F0FA08A8FFF73D
:1060F000FBFB9DF9202023680292227B0192FF2264
:1061000000926068423300220AA908F0A3FC03252C
:10611000D9E70A25D7E7616822688B799DF83A00AC
:10612000059392F8483091F807B0012883F0010AEE
:1061300040F0A8800C98477907F0C007A7F1400C01
:10614000DCF1000747EB0C0792F85400460740F1DA
:106150009B8092F84C00002800F0968092F84D50F9
:10616000082D00F093802846FEF72AF94AEA00003D
:106170005FFA80FA002F00F08B800C992846FEF71A
:1061800063FA0646216891F8542091F8418055073A
:106190004ED50B9A91F85A00157885427AD15578E8
:1061A00091F85B00854275D1957891F85C00854245
:1061B00070D1D57891F85D0085426BD1157991F851
:1061C0005E00854266D1507991F85F20904261D19E
:1061D0009DF8395091F85920A81A45424541626806
:1061E0005279082A58D091F84D90A9EB0202D2F1C9
:1061F000000949EB0209002E51D1BAF1000F50D02D
:106200000C9B9DF83A204231404607F044FBBBF11D
:10621000000F0BD0236893F85630012B56D02BB9C2
:10622000002D53D110B1B9F1000F51D102F04EFA47
:10623000236893F854309B073FF4ABAE02F046FA64
:10624000059B002B3FF4A5AE20680C9B9DF83A20DF
:1062500000F1420190F8410007F01DFB256800B9EC
:106260000EB308A8FFF740FB9DF920300293237B73
:10627000019348EA46085FFA88F30093012205F18A
:106280004203BFE600275FE74D7969E7002679E71B
:106290003E4677E70025A2E74FF00009ABE7012073
:1062A000B5E73046B3E795F85530023B012B3FF692
:1062B00070AE002F3FF46DAE08A8FFF715FB9DF9F7
:1062C00020300293237B0193FE23D6E70028ADD034
:1062D0000A257EE673B53F4CFFF77CFB236800225E
:1062E0005A721A6D1188598140F2E2409169B1FBEE
:1062F000F0F11984118C528C9A844FF47F42DA8425
:106300004FF6FF7259841A856069694607F0C7FC29
:10631000236893F8482003F11405EAB16269127802
:10632000520619D59DF8052002F0C002402A13D16B
:106330000098BDF804205861AA80207B082803F14A
:106340000E0238D003F10D01FEF720F938B941F201
:1063500017413220FBF72EFE00225A61ECE723683A
:106360005A7B42F002025A735A6FC3F81A20B3F8EC
:106370007820DA8393F95810186DFEF7D7F9206862
:10638000154907F015FD20681449036D1A88A0F817
:10639000332093F88D3080F835302A3007F011FD26
:1063A0002068022100F098FCFFF71AFA02B0BDE85D
:1063B0007040FFF705BA93F87A105973596FC3F814
:1063C0000E10B3F8781091800021C3F81A10D98309
:1063D000D0E700BFF01100201BE70000D7E6000067
:1063E000036D10B5044623B940F261313220FBF74A
:1063F000E1FD022242721B884381FF2380F827308F
:106400004FF6FF730385034907F0D2FC0023236591
:1064100010BD00BF1BE70000F8B50646FDF78AFD7A
:10642000174F012178610020FCF7EAF8054620B9F2
:1064300040F691013220FBF7BDFD4FF49072002130
:1064400005F0F8FD01210846FCF7DAF8044620B112
:106450004FF49072002105F0EDFDBB6813B940F6D2
:106460009B01E7E7304608F005FA284608F03BFCB8
:1064700024B12046BDE8F84008F035BCF8BD00BFA7
:10648000F0110020014B024A9A607047F011002081
:1064900094650000036810B523B940F67F113220DF
:1064A000FBF788FD044A13606C3353609368BDE8C2
:1064B00010401B68184700BFF011002038B5044693
:1064C00090F8400000F0FD00003818BF012084F86B
:1064D000410004F14201FDF70BFE94F84030023B0D
:1064E000DBB2012B94BF0123002384F8483015D878
:1064F000FEF746F8054603F0E3F9094BE5FB030117
:1065000094F84830C4E9200143B10020FEF768F850
:1065100020B940F629213220FBF74CFD38BD00BFE1
:1065200040420F000149363007F045BCF9E6000053
:106530009959000035580000115A00003BE800004E
:10654000F1570000D562000025E8000013E80000C4
:10655000C1570000F1590000EDE60000595A000053
:10656000EDE60000EDE60000EDE60000EDE60000DF
:10657000EDE60000995D0000D15D0000EDE6000051
:10658000EDE60000395E00000D5900004DE8000006
:106590003FE80000215B0000406500004865000006
:1065A00050650000846500008C65000008B506F0A9
:1065B00076FA054AD2E84F3F0133DBB2C2E8413FE9
:1065C0000029F7D108BD00BF081200202DE9F84FBF
:1065D0001E46474B04689DF828709DF82C809DF955
:1065E00030909DF834A093461A780D460021016042
:1065F00032B95868A4F10801BDE8F84FFFF7D6BFDB
:106600001A2204F1090005F015FD0123A372BBF164
:10661000060F3CD8DFE80BF00420263B303B2A0075
:10662000E37A23F0130343F01303E372012323758A
:10663000FF23A375B8F1080F4FF07F0384F818907B
:10664000E37504F10E0246D004F10D014046FDF75A
:106650009DFF08BBC1211CE0E37A23F0150343F042
:106660001503E2E7E37A43F01003DEE7E37A23F071
:10667000120343F01203D8E7E27A4AF01A0A22F032
:106680001B020AF01B0A42EA0A02E272CEE740F25B
:1066900044413320FBF78EFC637B43F002036373BA
:1066A000E37A5B0720D5BA1E012A8BBFAA6832683D
:1066B0001168E26188BFE16104F11C0394BFB288F4
:1066C00092889A80E776002323720A492046BDE823
:1066D000F84F07F070BB6B7C63736B681968C4F884
:1066E0000E109B889380DBE7FF23E376EBE700BF88
:1066F00008120020F96600002DE9F04305468DB030
:106700000C4600200121FBF7B7FF064620B94FF4E5
:10671000F0713320FBF74EFC903008F0E6FA4D4F55
:10672000A5F1080818B196F85430042B17D130465B
:1067300008F095F898B978684146FFF737FF4FF4AD
:106740000073ADF804309DF80430002063F30700B7
:106750009DF8053063F30F200DB0BDE8F08302A96A
:1067600005F1230008F0C6F9EE7A16F0100604F1E0
:106770000D0307D09DF8186005991846324605F0BC
:10678000DBFC0346E97AC80601D45B21C1E711F0BE
:10679000040FAA7A95F80DE004F1060005F10E0C3D
:1067A00029D095F81B90B9F1FE0F24D11121217049
:1067B0001101E270023101226170227184F805E05A
:1067C000D5F80E20C4F80620BCF80420828084F896
:1067D0000C90EA69C4F80D202A8C9A802B7EE37411
:1067E00078684146FFF7E2FE237923F060032371C6
:1067F0004FF40173A5E706F10A0313FB02F302331A
:10680000032121706370E27084F805E0D5F80E3042
:10681000C4F80630BCF804308380267326442B7EEF
:106820007373EA7A12F0080002D004232371D7E7C9
:1068300002F00303032B01D12071D1E7520701D5E8
:106840000123F3E7022BF1D00BB92171C8E7A22194
:106850005FE700BF08120020233270B592B20546F0
:106860000C461E4606F0E3F825B1034A5560147243
:106870005672147070BD00BF0812002010B5034C92
:10688000606806F0F6F8237A237010BD0812002025
:1068900038B5134D686806F0F2F8044620B940F2A6
:1068A00055113320FBF786FBD5E84F3F013BDBB2A8
:1068B000C5E8413F0029F7D104F108052322284605
:1068C00005F0B8FB7F23E377FF23A377637584F894
:1068D0002330E37C012262F34613E374284638BD7B
:1068E00008120020016810B5044631B1034B083985
:1068F0005868FFF75BFE0023236010BD08120020DC
:106900002DE9F04F8FB09846BDF8603005930446EE
:106910008A46914602F0D4FFD4F8B430039107467A
:106920002046049308F00DF90546B8F1000F00F079
:106930006F81B9F1000F00F0E380804617F5FA632C
:106940000693039B43F10006FEF74AFE8346594631
:1069500004F1C8000790FEF715FED4F8F01011B14D
:10696000079808F02FFACDB1D4F8D050BBF1000F42
:1069700017D0DBE90031DBF80800C018069B41F1B5
:106980000001CDE900362A4607F08AFE854203461B
:1069900008D240F24D312120FBF70CFBD4F8B05067
:1069A000E4E75B46D4F8B010069A9D1801F2CF7266
:1069B0001344B3FBF1F301FB03F346F10006EB1ABA
:1069C00066F10002C4E93232059B002B40F08D8055
:1069D0004FF0FF326FF00043C4E92423204608F053
:1069E0009DF8D4F89030D4F8941005935A1B834640
:1069F00061EB0600012A70F100034FF00003C0F2C2
:106A0000F780DDF810C09445834100DB0492049BBD
:106A1000D4F8B400834228BF03460493C4F8BC30C2
:106A2000B9F1000F05D0D4E93223C4E92656C4E9F0
:106A30002A230423C4E92856C4F8B8B02A468AF8A1
:106A4000093020463346069108F084F8CAF804B0AD
:106A50008AF80800B8F1000F00F0D58001238AF809
:106A60000030059B039A0699DB1B61EB0202012BA8
:106A700072F100004FF00000C0F2BC80794D9D42E1
:106A8000904100DB1D46D4F8F030D4F8B060002B04
:106A900040F0B58007222046A6FB022808F051F8F6
:106AA000002800F0A980D4E92630D21848EB000372
:106AB0000399974271EB03000DD2D21B6FF00100D6
:106AC00063EB010390424FF00000984102D39542DE
:106AD00028BF15462E46CAF81060049B5B4534BF9C
